S01400006275696C642F666F724C6162332E73313918
S315200000000748854600F0FEFA00F0C8FA00F030FAFC
S3152000001000F0D6F900F08EF900F002FAFEE70000B3
S315200000200028002080B500AF074B1A68064B032135
S315200000308A431A60044B1A68034B01210A431A604B
S31520000040C046BD4680BDC0460010024080B584B083
S3152000005000AF78600023FB600AE000F031F800F082
S315200000602FF800F02DF800F02BF8FB680133FB6029
S31520000070FA687B689A42F0D9C046C046BD4604B0AD
S3152000008080BD80B582B000AF7860074B01221A7020
S315200000907B681800FFF7DAFF034B00221A707B6893
S315200000A01800FFF7D3FFF0E71410024080B500AF29
S315200000B0024B00221A60C046BD4680BD10E000E01B
S315200000C080B500AF0C4B00221A600C4B29221A6017
S315200000D00B4B00221A60084B05221A60C046064BBD
S315200000E01A6880235B021340F9D0034B00221A6062
S315200000F0C046BD4680BDC04610E000E014E000E0EA
S3152000010018E000E080B582B000AF124AFB1D1278DD
S315200001101A70FB1D1B780822134001D0042315E01A
S31520000120FB1D1B780422134001D003230EE0FB1D88
S315200001301B780222134001D0022307E0FB1D1B7807
S315200001400122134001D0012300E000231800BD4600
S3152000015002B080BD1110024080B500AF044B1A6872
S31520000160034B1204120C1A60C046BD4680BDC04621
S315200001704038014080B582B000AF78607B68042BA0
S3152000018019D87B689A000E4BD3181B689F460D4BD7
S3152000019010221A700FE00B4B20221A700BE0094B2D
S315200001A040221A7007E0074B80221A7003E0054BA5
S315200001B000221A70C046C046BD4602B080BDC04669
S315200001C0581200201510024080B582B000AF134BA4
S315200001D01B78DAB2BB1D1A80BB1D1B880822134070
S315200001E001D0042315E0BB1D1B880422134001D037
S315200001F003230EE0BB1D1B880222134001D00223DD
S3152000020007E0BB1D1B880122134001D0012300E01B
S3152000021000231800BD4602B080BDC0461110024022
S3152000022090B587B000AF3B00154A13CA13C31268B6
S315200002301A6001237B6118E07B691800FFF79AFF9B
S31520000240FFF73EFFFFF7C0FF03003B613B69002B32
S3152000025008D07B69013B9A003B69013BD3183A00E1
S31520000260D35C09E07B6901337B617B69042BE3DD89
S31520000270044B00221A70FF231800BD4607B090BD1C
S315200002806C1200201510024080B582B000AF1E4BC4
S315200002901E4A1A601E4BAA2212041A601D4B002207
S315200002A01A801D4B00221A601C4B00221A701C4B10
S315200002B000221A70FFF7B4FF03007B607B68FF2BD8
S315200002C0F8D0184B1A68174B1204120C1A60154BEB
S315200002D01A68144B14490A431A60144B1A68134BB4
S315200002E008210A431A60124B1A68114B08210A4347
S315200002F01A600F4B1A680E4B08218A431A60C046B3
S31520000300BD4602B080BDC04600100240555500557E
S315200003100C10024004100240081002401410024043
S31520000320151002404038014044440000003C014082
S315200003300C3C014080B500AFFFF774FEFFF7A4FF29
S315200003406420FFF79EFEC0460D4B1B78DBB2012BC7
S31520000350FAD1FFF7ABFEC046094B1B78DBB2052B63
S31520000360FAD1C820FFF78DFEC046054B1B78DBB2BD
S31520000370092BFAD1FFF79AFEC046BD4680BDC0467E
S31520000380F01100200B4A08B50346106828B10A4927
S3152000039003448B4207D8136008BD084806491060FD
S315200003A003448B42F7D900F09FF90C2303604FF0EA
S315200003B0FF3008BDE012002000240020002000208D
S315200003C0134B144A10B5144C002193422160044665
S315200003D003D2D21A184600F0B5FB20460F4C00F087
S315200003E089F82168002348680222194600F0A0FCFB
S315200003F02068002319460222806800F099FC2068B4
S315200004000023BDE81040C0680222194600F090BCC7
S31520000410E0120020FC120020E0120020F41100203F
S3152000042000F072B8431E012B084601D90020704700
S31520000430114600F099B800BF0B4608B1002070475E
S315200004401146184600F06EB84FF0FF30704700BFD7
S315200004504FF0FF30704700BF0020704700207047E4
S315200004600138012801D90020704700F095B800BF57
S31520000470184B194A596C194841F0100110B45964A7
S31520000480196B41F001011963596A41F01001596253
S31520000490596A21F010015962196941F00101196167
S315200004A0196921F001011961536A43F4EE6353621D
S315200004B0136843F420131360D36840F2D92442F220
S315200004C00C0143F48013D36084605DF8044BC16053
S315200004D0704700BF00380240000002400010014073
S315200004E0034B186810F020001CBF5868C0B2704734
S315200004F000100140034B002040F2D9229A60586137
S31520000500186170470010014008B5044B1B689868B5
S3152000051000F0AEF9024B0022DA6008BDF41100208B
S3152000052000100140094A00B58646002013689B0644
S3152000053008D5536813F0FF03F44603D00CF8013BAB
S315200005400130E6468842F1D15DF804FB00100140F7
S31520000550044A13681B06FCD50A28506001D10D20D9
S31520000560F7E77047001001408446084689B1094ADA
S3152000057000B50CEB010E1CF8011B13681B06FCD5FD
S315200005800A29516001D10D21F7E7E645F3D15DF83F
S3152000059004FB70470010014001207047164B174896
S315200005A01A6B174942F0180210B41A635C6C44F4B3
S315200005B080445C641C6944F018041C611C6924F0A6
S315200005C018041C615C6944F480445C615C6924F411
S315200005D080445C6100224FF0AA3302605DF8044B30
S315200005E0C36042608260026142610A60CB604A60F9
S315200005F08A600A614A617047003802400010024052
S31520000600000C0240334A34481368002143F00103AA
S3152000061082B013609160136823F0847323F48033CF
S3152000062013605060136823F480231360D160009117
S315200006300191136843F48033136003E0009BB3F504
S31520000640A04F09D0136803F400330193009B0133B4
S315200006500093019B002BF1D01E4B1B6813F4003333
S3152000066018BF01230193019B012B01D002B07047D3
S31520000670184B1A491A6C1A4842F080521A640A68B2
S3152000068042F440420A609A689A609A6842F40042AC
S315200006909A609A6842F4A0529A6058601A6842F0AA
S315200006A080721A601A689201FCD50E4A40F20561E2
S315200006B01160996821F003019960996841F002015F
S315200006C0A2F580629960936803F00C03082BFAD197
S315200006D002B07047003802401030002400700040FD
S315200006E008544008003C0240014B1868704700BF80
S315200006F0F41100208A89F8B5054610070C4657D410
S315200007004B68002B04DC0B6C002B01DC0020F8BDB1
S31520000710E66A002EFAD0002312F480522F682B604E
S3152000072032D0606DA3895A0705D56368C01A636BFA
S315200007300BB1236CC01A00230246E66A216A2846BA
S31520000740B047431CA38906D129681D292CD8294ADC
S31520000750CA40D60728D500226260D90422692260C1
S3152000076004D5421C01D12B6803B96065616B2F60EB
S315200007700029CBD004F14403994202D0284600F048
S31520000780E9F900206063C2E7216A01232846B047C1
S31520000790411CC7D12B68002BC4D01D2B01D0162B92
S315200007A001D12F60B2E7A38943F04003A381AEE7CE
S315200007B00F69002FAAD093070E6808BF4B690F60F8
S315200007C018BF0023F61B8B60002E9FDD216AD4F80C
S315200007D028C033463A462846E047002806DCA38947
S315200007E043F04003A3814FF0FF3090E70744361AC9
S315200007F0EAE700BF0100402038B50B6905460C46E4
S3152000080013B90025284638BD18B183690BB900F005
S31520000810B7F8144B9C421BD16C68B4F90C30002BF2
S31520000820EFD0626ED00704D4990502D4A06D00F0F3
S3152000083082F928462146FFF75DFF636EDA070546F3
S31520000840E0D4A3899B05DDD4A06D00F07AF9D9E721
S31520000850054B9C4201D1AC68DFE7044B9C4208BFA4
S31520000860EC68DAE79C120020BC1200207C120020E3
S31520000870014620B9044B0549186800F038B9044BE5
S315200008801868FFF7B9BF00BFDC120020F907002067
S31520000890F4110020002310B50446C0E90033C0E956
S315200008A00433836081814366C281836119460822AD
S315200008B05C3000F047F9054B6362054BA362054B9C
S315200008C0E362054B2462236310BD00BFBD0E0020EA
S315200008D0E30E00201B0F00203F0F0020014900F0EF
S315200008E006B900BFF907002008B5436EDA0705D41C
S315200008F083899B0502D4806D00F01DF9002008BD78
S3152000090008B5436EDA0705D483899B0502D4806D2A
S3152000091000F017F9002008BD70B568224D1E55431A
S315200009200E4605F1740100F07FF9044640B100211E
S31520000930C0E900160C30A06005F1680200F002F94B
S31520000940204670BD014B1868FFF7C8BFDC12002097
S31520000950014800F0F0B800BFEA120020014800F07C
S31520000960F0B800BFEA120020014800F0E4B800BF4A
S31520000970EB120020014800F0E4B800BFEB12002083
S3152000098010B50446FFF7F0FFA3691BB1BDE8104080
S31520000990FFF7F0BFC4E912332365134B134A1B68D4
S315200009A0A262A34204BF0123A361204600F020F8DF
S315200009B06060204600F01CF8A060204600F018F881
S315200009C00022E06004216068FFF764FFA06801222E
S315200009D00921FFF75FFFE06802221221FFF75AFF85
S315200009E00123A361D2E700BFDC120020DD0800202E
S315200009F0F8B50746FFF7ACFF1E4B1E68B36913B95F
S31520000A003046FFF7BDFF4836D6E90134013B03D512
S31520000A1033680BB33668F7E7B4F90C50D5B9164BE3
S31520000A20E36004F15800656600F081F8FFF796FF51
S31520000A30C4E90155C4E904552560A5610822294663
S31520000A4004F15C0000F07EF8C4E90D55C4E91255A6
S31520000A502046F8BD6834D9E704213846FFF75CFF05
S31520000A60044630600028D5D1FFF778FF0C233B6081
S31520000A70EEE700BFDC1200200100FFFF08B5FFF7FC
S31520000A8067FF034B03491868BDE8084000F012B819
S31520000A90F4110020E908002008B5044B0449186821
S31520000AA000F008F8BDE80840FFF758BFF411002011
S31520000AB0010900202DE9F0410F4600F148040026E7
S31520000AC0D4E90185B8F1010805D52468002CF7D1B1
S31520000AD03046BDE8F081AB89012B06D9B5F90E3039
S31520000AE0013302D02846B84706436835EAE72DE9A0
S31520000AF0F8430646884600F148040027D4E90195C4
S31520000B00B9F1010905D52468002CF7D13846BDE88E
S31520000B10F883AB89012B07D9B5F90E30013303D001
S31520000B2029463046C04707436835E9E7704770478E
S31520000B307047704770477047012070470120704703
S31520000B407047704702440346934200D1704703F82A
S31520000B50011BF9E738B50546002941D051F8043C78
S31520000B600C1F002BB8BFE41800F098FA1D4A136832
S31520000B7033B9636014602846BDE8384000F094BA63
S31520000B80A34208D9206821188B4201BF19685B68E7
S31520000B9009182160EDE71A465B680BB1A342FAD922
S31520000BA011685018A0420BD1206801445018834286
S31520000BB01160E0D118685B68536001441160DAE780
S31520000BC002D90C232B60D6E7206821188B4204BF5C
S31520000BD019685B68636004BF091821605460CAE71E
S31520000BE038BD00BFF012002070B50E4E0C4631689D
S31520000BF0054611B900F08CF830602146284600F0F1
S31520000C0087F8431C0AD0C41C24F00304A04207D052
S31520000C10211A284600F07CF8013001D14FF0FF342C
S31520000C20204670BDF41200202DE9F041CD1C25F0A0
S31520000C30030508350C2D38BF0C25002D074601DB92
S31520000C40A94205D90C233B6000263046BDE8F08139
S31520000C502E4E00F023FA33681C4634BB294638460C
S31520000C60FFF7C2FF431C04464DD134682646002EAA
S31520000C7040D123683146384604EB030800F048F893
S31520000C8080453AD1216803356D1A25F003050835CC
S31520000C900C2D38BF0C2529463846FFF7A5FF013015
S31520000CA02BD023682B4423600EE02268521B1ED4CF
S31520000CB00B2A16D96119A342256018BF59606368AB
S31520000CC008BF316062514B60384604F10B0600F0D4
S31520000CD0EBF926F00706231DF21AB6D09B1BA3506C
S31520000CE0B3E76268A3420CBF32605A60ECE7234642
S31520000CF06468B2E734467668B9E70C233B60384629
S31520000D0000F0D2F9A1E72560DEE700BFF01200204F
S31520000D1038B5064D0023044608462B60FFF732FB04
S31520000D20431C02D12B6803B1236038BDF812002082
S31520000D302DE9F7431D465D4B1F6804460E46904637
S31520000D4027B1BB6913B93846FFF71AFE584B9C42A8
S31520000D5067D17C68B8F1020F06D0B8F1010F00F216
S31520000D609F80002DC0F29C80636EDB0705D4A3898B
S31520000D70980502D4A06DFFF7DEFE21463846FFF720
S31520000D803BFD616B41B104F14403994202D03846E0
S31520000D90FFF7E0FE002363630023A3616360A3895A
S31520000DA0190603D521693846FFF7D4FEA38923F413
S31520000DB04A6323F00303B8F1020FA3816CD001AB81
S31520000DC06A462146384600F0F3F8A3891843A081E5
S31520000DD0002D30D1009D284600F050F90646002807
S31520000DE055D1DDF80090A9454AD14FF0FF350022B4
S31520000DF0A26004F14702226022610122B4F90C307C
S31520000E006261626E43F00203D207A38105D413F414
S31520000E10007F02D1A06DFFF794FE284603B0BDE8FF
S31520000E20F083244B9C4201D1BC6893E7224B9C4221
S31520000E3008BFFC688EE7002ECDD0BB6913B93846B3
S31520000E40FFF79EFDB8F1010F08BFA389266004BFF6
S31520000E5043F00103A381A28912F00803C4E90465C3
S31520000E601CD0D30741BF00236D42A360A56158BFA4
S31520000E70A560656E15F0010515D112F4007FC8E74F
S31520000E80484600F0FBF806460028AED04D46A3891A
S31520000E9043F08003A381D0E70025A8E7A360E8E715
S31520000EA04FF0FF35B9E70025B7E700BFF411002062
S31520000EB09C120020BC1200207C12002010B50C468B
S31520000EC0B1F90E1000F0F6F80028ABBF636DA389C8
S31520000ED01B1823F48053ACBF6365A38110BD00208B
S31520000EE070472DE9F0411F468B89DB0505460C46E8
S31520000EF0164605D5B1F90E100223002200F046F859
S31520000F00A389B4F90E1023F48053A38132463B46BD
S31520000F102846BDE8F04100F017B810B50C46B1F9E7
S31520000F200E1000F033F8431CA38915BF606523F427
S31520000F30805343F48053A38118BFA38110BDB1F918
S31520000F400E1000F013B8000038B5074D04460846C9
S31520000F50114600222A601A46FFF764FA431C02D182
S31520000F602B6803B1236038BDF812002038B5064D32
S31520000F700023044608462B60FFF766FA431C02D17D
S31520000F802B6803B1236038BDF812002038B5074D11
S31520000F9004460846114600222A601A46FFF75EFAE2
S31520000FA0431C02D12B6803B1236038BDF812002000
S31520000FB070B50E46B1F90E10002996B014461D469E
S31520000FC008DAB6F90C3000222A601A0610D44FF43B
S31520000FD080630EE06A4600F0E9F80028F1DB019A0A
S31520000FE002F47042A2F500535A425A412A60EEE7B3
S31520000FF040230020236016B070BD00008B8973B596
S315200010009D0706460C4607D504F147032360236156
S315200010100123636102B070BD01AB6A46FFF7C8FFCA
S31520001020009905463046FFF7FFFD48B9B4F90C3064
S315200010309A05EFD423F0030343F00203A381E3E7E9
S315200010400D4BB362A389206043F08003A381009BEC
S315200010506361019B20615BB1B4F90E10304600F04C
S31520001060B7F828B1A38923F0030343F00103A38132
S31520001070A0890543A581CDE7DD080020024B014666
S315200010801868FFF7D1BD00BFF4110020024B0146BE
S315200010901868FFF75FBD00BFF41100200148FFF775
S315200010A04ABD00BFE91200200148FFF74ABD00BF34
S315200010B0E912002038B5074D04460846114600229D
S315200010C02A601A46FFF7B8F9431C02D12B6803B1F0
S315200010D0236038BDF812002038B50C46096805464D
S315200010E009B1FFF7F9FF21462846BDE83840FFF74A
S315200010F031BD00002C4B1B68834270B5044651D08D
S31520001100436A43B1DB68002B4AD1636A196811B17F
S315200011102046FFF71FFD616911B12046FFF71AFD32
S31520001120616A11B12046FFF715FDA16B11B120466A
S31520001130FFF710FDE16B11B12046FFF70BFD216C87
S3152000114011B12046FFF706FDE16D11B12046FFF7EC
S3152000115001FDA16D11B12046FFF7FCFC616B11B1B9
S315200011602046FFF7F7FCA369E3B1A36A2046984718
S31520001170A16CB9B12046BDE87040FFF7ADBF495913
S3152000118041B90435636A802DD968F8D12046FFF726
S31520001190E1FCBAE70E682046FFF7DCFC3146EFE7B4
S315200011A00025EFE770BD00BFF411002038B5074DCC
S315200011B000230446084611462B60FFF74DF9431CD1
S315200011C002D12B6803B1236038BD00BFF81200207E
S315200011D038B5064D0023044608462B60FFF740F934
S315200011E0431C02D12B6803B1236038BDF8120020BE
S315200011F0FF000000F8110020000000009C120020D3
S31520001200BC1200207C12002000000000000000001C
S3152000121000000000000000000000000000000000A8
S315200012200000000000000000000000000000000098
S315200012300000000000000000000000000000000088
S315200012400000000000000000000000000000000078
S315200012500000000000000000AE0100208E010020EA
S31520001260960100209E010020A60100203132334144
S31520001270343536423738394345304644000000007D
S315200012800000000000000000000000000000000038
S315200012900000000000000000000000000000000028
S315200012A00000000000000000000000000000000018
S315200012B00000000000000000000000000000000008
S315200012C000000000000000000000000000000000F8
S315200012D0000000000000000000000000F8110020BF
S315200012E000000000000000000000000000000000D8
S315200012F000000000000000000000000000000000C8
S3152000130000000000000000000000000000000000B7
S3152000131000000000000000000000000000000000A7
S70520000000DA
