S01400006275696C642F666F724C6162332E73313918
S315200000000748854600F074FB00F03EFB00F0A6FA98
S3152000001000F04CFA00F0F2F900F078FAFEE7000062
S315200000200028002080B500AF074B084A1A60084B0D
S3152000003000221A80074B054A1A60074B00221A60D5
S31520000040C046BD4680BDC046001002405555555598
S31520000050041002400C1002400810024080B500AF88
S315200000600C4B00221A600C4B29221A600B4B0022E3
S315200000701A60084B05221A60C046064B1A68802370
S315200000805B021340F9D0034B00221A60C046BD46DE
S3152000009080BDC04610E000E014E000E018E000E07B
S315200000A080B584B000AF78600023FB600AE0FFF7DC
S315200000B0D5FFFFF7D3FFFFF7D1FFFFF7CFFFFB6891
S315200000C00133FB60FA687B689A42F0D9C046C04685
S315200000D0BD4604B080BD80B582B000AF124AFB1D7C
S315200000E012781A70FB1D1B780822134001D00423B6
S315200000F015E0FB1D1B780422134001D003230EE0DC
S31520000100FB1D1B780222134001D0022307E0FB1DB2
S315200001101B780122134001D0012300E000231800A0
S31520000120BD4602B080BDC0461110024080B582B0E7
S3152000013000AF78607B68042B19D87B689A000E4B39
S31520000140D3181B689F460D4B10221A700FE00B4BDD
S3152000015020221A700BE0094B40221A7007E0074B49
S3152000016080221A7003E0054B00221A70C046C04652
S31520000170BD4602B080BDC046181E002015100240A4
S3152000018080B582B000AF134B1B78DAB2BB1D1A8044
S31520000190BB1D1B880822134001D0042315E0BB1D7C
S315200001A01B880422134001D003230EE0BB1D1B88AD
S315200001B00222134001D0022307E0BB1D1B88012227
S315200001C0134001D0012300E000231800BD4602B0F1
S315200001D080BDC0461110024090B587B000AF3B00ED
S315200001E0154A13CA13C312681A6001237B6118E0EB
S315200001F07B691800FFF79AFFFFF730FFFFF7C0FF74
S3152000020003003B613B69002B08D07B69013B9A00C8
S315200002103B69013BD3183A00D35C09E07B69013383
S315200002207B617B69042BE3DD044B00221A70FF23DC
S315200002301800BD4607B090BD2C1E002015100240A8
S3152000024080B500AF0E4B1A680D4B0F218A431A60FA
S31520000250FFF7C2FF03001A000A4B1A700A4BF0225E
S315200002601A700A4B1A68094B0F210A431A60044B6D
S315200002701A68034B0F210A431A60C046BD4680BD4B
S31520000280003C0140B81D002011100240143C0140E2
S3152000029080B500AF054B1B78DBB2044A01214B40E9
S315200002A0DBB21370C046BD4680BDC0461410024066
S315200002B080B582B000AF78600C4B0D4A1A600D4BAA
S315200002C00D4A1A600D4B00221A607B68A8225A43F9
S315200002D00B4B013A1A600B4B00221A60074B072280
S315200002E01A60C046BD4602B080BDC0463CC0012053
S315200002F09102002064C001204102002010E000E0AD
S3152000030014E000E018E000E080B500AF024B0022C8
S315200003101A60C046BD4680BD10E000E080B500AF43
S31520000320164B1A68154B802109040A431A60144B90
S315200003301A68134B802149000A431A60114B124A4E
S315200003401A60124B1A68114BF02109010A431A60F0
S315200003500F4B1A680E4BF02109010A431A600D4B08
S315200003601A680C4B0C490A401A600C4B0C4A1A604E
S315200003700C4B0B4A1A60C046BD4680BD00E100E02A
S3152000038004E100E01038014044440000003C0140F4
S31520000390083C01400C3C0140FFF0FFFF9CC00120BF
S315200003A041020020E0C0012080B500AF0B4B0C4A73
S315200003B01A600C4BAA2212041A600B4B00221A80D8
S315200003C00A4B0B4A1A600B4B00221A700A4BF0227A
S315200003D01A70FFF7A3FFC046BD4680BD001002403D
S315200003E0555500550C1002400410024008100240DA
S315200003F0AAAAAAAA141002401510024080B584B0F9
S3152000040000AFFFF70FFEFFF7CFFF6420FFF750FF87
S31520000410154B1B78DBB21A00144B1100180000F0A4
S31520000420FDFC01E001237B600F4B1B78DBB2012B27
S31520000430F8D1FFF769FF01E00223BB600A4B1B7866
S31520000440DBB2052BF8D1C820FFF732FF01E00323EA
S31520000450FB60054B1B78DBB2092BF8D1FFF754FF65
S31520000460C046BD4604B080BDB81D00203C1E0020FD
S315200004700B4A08B50346106828B10A4903448B4243
S3152000048007D8136008BD08480649106003448B420C
S31520000490F7D900F0EDFC0C2303604FF0FF3008BDC8
S315200004A0801E00200024002000200020134B144A28
S315200004B010B5144C002193422160044603D2D21A6F
S315200004C0184600F0BDFC20460F4C00F089F8216844
S315200004D0002348680222194600F036FA20680023D5
S315200004E019460222806800F02FFA20680023BDE812
S315200004F01040C0680222194600F026BA801E00204D
S31520000500D41F0020801E0020C81D002000F072B8D5
S31520000510431E012B084601D900207047114600F0E2
S3152000052099B800BF0B4608B10020704711461846FF
S3152000053000F06EB84FF0FF30704700BF4FF0FF302D
S31520000540704700BF002070470020704701380128FF
S3152000055001D90020704700F095B800BF184B194A02
S31520000560596C194841F0100110B45964196B41F0C7
S3152000057001011963596A41F010015962596A21F043
S3152000058010015962196941F001011961196921F0B7
S3152000059001011961536A43F4EE635362136843F40D
S315200005A020131360D36840F2D92442F20C0143F49D
S315200005B08013D36084605DF8044BC160704700BF30
S315200005C0003802400000024000100140034B18682A
S315200005D010F020001CBF5868C0B2704700100140C0
S315200005E0034B002040F2D9229A6058611861704767
S315200005F00010014008B5044B1B68986800F090F97C
S31520000600024B0022DA6008BDC81D00200010014000
S31520000610094A00B58646002013689B0608D553680C
S3152000062013F0FF03F44603D00CF8013B0130E646F5
S315200006308842F1D15DF804FB00100140044A13689A
S315200006401B06FCD50A28506001D10D20F7E770471C
S31520000650001001408446084689B1094A00B50CEBD2
S31520000660010E1CF8011B13681B06FCD50A295160D4
S3152000067001D10D21F7E7E645F3D15DF804FB70477C
S315200006800010014001207047164B17481A6B174976
S3152000069042F0180210B41A635C6C44F480445C6423
S315200006A01C6944F018041C611C6924F018041C61A0
S315200006B05C6944F480445C615C6924F480445C6138
S315200006C000224FF0AA3302605DF8044BC3604260FB
S315200006D08260026142610A60CB604A608A600A6178
S315200006E04A6170470038024000100240000C024068
S315200006F0334A34481368002143F0010382B0136063
S315200007009160136823F0847323F480331360506060
S31520000710136823F480231360D1600091019113683C
S3152000072043F48033136003E0009BB3F5A04F09D058
S31520000730136803F400330193009B01330093019B5C
S31520000740002BF1D01E4B1B6813F4003318BF012376
S315200007500193019B012B01D002B07047184B1A4917
S315200007601A6C1A4842F080521A640A6842F44042CF
S315200007700A609A689A609A6842F400429A609A6877
S3152000078042F4A0529A6058601A6842F080721A6049
S315200007901A689201FCD50E4A40F2056111609968EB
S315200007A021F003019960996841F00201A2F5806267
S315200007B09960936803F00C03082BFAD102B07047B6
S315200007C000380240103000240070004008544008D1
S315200007D0003C0240B1F90C20F8B5160705460C4638
S315200007E051D44B68002B02DC0B6C002B49DDE66AEA
S315200007F0002E46D0002312F480522F682B6031D071
S31520000800626DA389590705D56368D21A636B0BB14C
S31520000810236CD21A0023E66A216A2846B047421C76
S31520000820B4F90C3006D129681D2945D8274ACA4073
S31520000830D60741D500226260D9042269226004D5F8
S31520000840421C01D12B6803B96065616B2F60C1B171
S3152000085004F14403994202D0284600F08BFB002382
S3152000086063630EE0216A01232846B0470246501CE6
S31520000870C7D12B68002BC4D01D2B01D0162B19D124
S315200008802F6000201DE00F69002FFAD093070E6815
S3152000089008BF4B690F6018BF0023F61B8B60002E24
S315200008A0EFDD216AD4F828C033463A462846E04789
S315200008B0002807DCB4F90C3043F04003A3814FF045
S315200008C0FF30F8BD0744361AE9E700BF0100402093
S315200008D038B50B6905460C4613B90025284638BDA0
S315200008E018B1036A0BB900F0DBF9B4F90C30002B10
S315200008F0F3D0626ED00704D4990502D4A06D00F01F
S31520000900C2FA28462146FFF765FF636EDA070546D9
S31520000910E4D4A3899B05E1D4A06D00F0BAFADDE703
S31520000920014620B9044A0549054800F0EDB9054BB2
S315200009301868FFF7CDBF00BFBC1D0020D1080020DE
S31520000940CC1D0020C81D00202DE9F7431D46574B1E
S315200009501F6804460E46904627B13B6A13B93846AF
S3152000096000F09EF9B8F1020F06D0B8F1010F00F29F
S315200009709A80002DC0F29780636ED90705D4A3898B
S315200009809A0502D4A06D00F07EFA21463846FFF77C
S315200009909FFF616B41B104F14403994202D038466E
S315200009A000F0E8FA002363630023A3616360A38950
S315200009B01B0603D52169384600F0DCFAA38923F407
S315200009C04A6323F00303B8F1020FA38161D001AB80
S315200009D06A462146384600F0B5F9A3891843A08116
S315200009E02DBB009D284600F065FC0646002852D106
S315200009F0DDF80090A94540D14FF0FF35B4F90C3011
S31520000A0043F00202A2810022A26004F14702226082
S31520000A10226101226261626ED60704D4980502D44F
S31520000A20A06D00F036FA284603B0BDE8F083002E0C
S31520000A30D8D03B6A13B9384600F032F9B8F1010F25
S31520000A4008BFA389266004BF43F00103A381B4F93C
S31520000A500C3013F00802C4E904651ED0D90741BF43
S31520000A6000226D42A260A56158BFA560626ED207C2
S31520000A7001D49B0513D50025D5E7484600F01AFC7E
S31520000A8006460028B8D0A38943F08003A3814D46AB
S31520000A90CFE70025B2E7A946F5E7A260E6E7A06D15
S31520000AA000F0F7F9E7E74FF0FF35BCE7C81D002057
S31520000AB0002310B50446C0E90033C0E9043383603F
S31520000AC081814366C2818361194608225C3000F029
S31520000AD0B7F90D4B63620D4BA3620D4BE3620D4BD1
S31520000AE023630D4B24629C4206D003F16802944294
S31520000AF002D0D0339C4205D104F15800BDE8104005
S31520000B0000F0BDB910BD00BF4D170020731700209F
S31520000B10AB170020D1170020841E0020024A03496B
S31520000B20034800F0F1B800BFBC1D0020D10800200A
S31520000B30CC1D002041680C4B994210B5044601D0CB
S31520000B40FFF7C6FEA168094B994202D02046FFF75F
S31520000B50BFFEE168064B994204D02046BDE810400E
S31520000B60FFF7B6BE10BD00BF841E0020EC1E00207D
S31520000B70541F002008B54B6EDA0705D48B899B05D8
S31520000B8002D4886D00F07FF9002008BD08B54B6EB1
S31520000B90DA0705D48B899B0502D4886D00F079F994
S31520000BA0002008BD0C4B0D4A0D4810B504211A60D3
S31520000BB00022FFF77DFF0A4B01221C46092103F183
S31520000BC06800FFF775FF04F1D0000222BDE810404F
S31520000BD01221FFF76DBF00BFBC1F00201D0B002098
S31520000BE0841E0020014800F04EB900BFC71F002018
S31520000BF0014800F04EB900BFC71F0020F8B50746D0
S31520000C00FFF7F0FF234B1B680BB9FFF7CBFF224EF4
S31520000C10D6E90134013B0FD53568002D38D14FF484
S31520000C20D671384600F078FB044628BB3060FFF7C3
S31520000C30DFFF0C233B601BE0B4F90C50D5B9174BF2
S31520000C40E36004F15800656600F019F9FFF7D0FF5C
S31520000C50C4E90155C4E904552560A5610822294641
S31520000C6004F15C0000F0ECF8C4E90D55C4E9125516
S31520000C702046F8BD6834CDE70423056043600C3078
S31520000C802946A0604FF4D07200F0DAF82546346089
S31520000C902E46BDE7BC1F0020BC1D00200100FFFF23
S31520000CA010B50446FFF79EFF236A1BB1BDE810402E
S31520000CB0FFF79EBF044B2362044B1B68002BF5D124
S31520000CC0FFF770FFF2E700BF350B0020BC1F0020A6
S31520000CD008B5FFF787FFBDE80840024A0249002011
S31520000CE000F012B8BC1D0020750B002008B5044A80
S31520000CF00449002000F008F8BDE80840FFF778BF57
S31520000D00BC1D00208D0B00202DE9F84307468846A0
S31520000D1014460026D4E90195B9F1010905D52468C0
S31520000D20002CF7D13046BDE8F883AB89012B07D9D3
S31520000D30B5F90E30013303D029463846C04706435D
S31520000D406835E9E770B50C46B1F90E10002996B062
S31520000D5015461E460ADAA18911F0800113D14FF4F7
S31520000D608062002031602A6016B070BD6A4600F0AD
S31520000D70EFF80028EFDB019901F47041A1F500534B
S31520000D8059425941EBE700214022EAE78B8973B5A6
S31520000D909E0705460C4607D504F1470323602361C9
S31520000DA00123636102B070BD01AB6A46FFF7CAFF3B
S31520000DB0009E2846314600F0AFFAB4F90C3038B917
S31520000DC09A05EFD423F0030343F00203A381E3E75C
S31520000DD043F08003A381019B2060C4E90406002B15
S31520000DE0E0D0B4F90E10284600F032F80028D9D009
S31520000DF0A38923F0030343F00103A381D2E70EB4B2
S31520000E0003B503AB816853F8042B019300F030F946
S31520000E1002B05DF804EB03B0704700000FB407B5CD
S31520000E20064904AB086853F8042B8168019300F047
S31520000E301FF903B05DF804EB04B07047C81D00200D
S31520000E4002440346934200D1704703F8011BF9E799
S31520000E5038B5064D0023044608462B60FFF776FB7F
S31520000E60431C02D12B6803B1236038BDC81F002064
S31520000E70014B1868704700BFC81D00207047704797
S31520000E8070477047704770470120704701207047B0
S31520000E90704770472D4B1B68834270B5044653D06C
S31520000EA0C3691BB3DB6863B10025E369DB68595965
S31520000EB0B1B90435802DF8D1E3692046D96800F010
S31520000EC059F8E369196811B1204600F053F8E3692F
S31520000ED09D685DB1294620462D6800F04BF8F8E75D
S31520000EE00E68204600F046F83146E1E7616911B107
S31520000EF0204600F03FF8E16911B1204600F03AF8AB
S31520000F00216B11B1204600F035F8616B11B12046F6
S31520000F1000F030F8A16B11B1204600F02BF8A16C3F
S31520000F2011B1204600F026F8616C11B1204600F080
S31520000F3021F8E16A11B1204600F01CF8236A1BB1A2
S31520000F402046BDE87040184770BD00BFC81D002070
S31520000F5038B5074D00230446084611462B60FFF797
S31520000F60F1FA431C02D12B6803B1236038BD00BFC0
S31520000F70C81F002038B50546002941D051F8043C49
S31520000F800C1F002BB8BFE41800F0D4FB1D4A1368D1
S31520000F9033B9636014602846BDE8384000F0D0BB02
S31520000FA0A34208D9206821188B4201BF19685B68C3
S31520000FB009182160EDE71A465B680BB1A342FAD9FE
S31520000FC011685018A0420BD1206801445018834262
S31520000FD01160E0D118685B68536008441060DAE756
S31520000FE002D90C232B60D6E7206821188B4204BF38
S31520000FF019685B68636004BF091821605460CAE7FA
S3152000100038BD00BFD01F00209368013B002B10B4D1
S31520001010936007DA9469A34201DB0A2902D110BC46
S3152000102000F0DABB1368581C10601970084610BC13
S315200010307047F8B506460F461446D518AC4201D17E
S31520001040002007E014F8011B3A463046FFF7DCFF84
S31520001050431CF3D1F8BD936810B5144633B100F0A4
S3152000106055FC0023A3600023636010BD1846FAE7F1
S315200010702DE9F04F0D469DB014469846064618B108
S31520001080036A0BB9FFF70CFE6B6ED90705D4AB8943
S315200010909A0502D4A86DFFF7F6FEAB891B0701D58A
S315200010A02B699BB92946304600F0DCFB70B16B6E8C
S315200010B0DC0704D54FF0FF301DB0BDE8F08FAB89BB
S315200010C09805F7D4A86DFFF7E4FEF3E7002309930C
S315200010D020238DF82930CDF80C803023DFF8AC8121
S315200010E08DF82A304FF0010923469A4613F8012B32
S315200010F00AB1252AF9D1BAEB040B0BD05B4622465E
S3152000110029463046FFF795FF013000F0A780099A5F
S315200011105A4409929AF80030002B00F09F80002351
S315200011204FF0FF32CDE905230AF1010A0493079314
S315200011308DF853301A935446052214F8011B534850
S3152000114000F0A6FD049AD8B9D10644BF20238DF815
S315200011505330130744BF2B238DF853309AF80030B1
S315200011602A2B15D0079A544600204FF00A0C214608
S3152000117011F8013B303B092B4BD9B0B1079214E053
S31520001180A0EB080309FA03F313430493A246D2E71C
S31520001190039B191D1B680391002BBBBF5B4242F0CA
S315200011A0020207930793B8BF049223782E2B0AD105
S315200011B063782A2B32D1039B1A1D1B68039243EABC
S315200011C0E37302340593DFF8C8A021780322504642
S315200011D000F05EFD38B1049BA0EB0A00402282405D
S315200011E013430134049314F8011B2A488DF8281060
S315200011F0062200F04DFD00283FD0274B1BBB039B4A
S31520001200073323F0070308330393099B3B440993D1
S315200012106AE70CFB02320C460120A8E700230134C2
S31520001220059319464FF00A0C204610F8012B303A48
S31520001230092A03D9002BC6D00591C4E70CFB01214E
S3152000124004460123F0E703AB00932A46134B04A977
S315200012503046AFF300800746781CD6D16B6ED9078F
S3152000126005D4AB899A0502D4A86DFFF712FEAB8987
S315200012705B063FF51FAF09981EE703AB00932A468E
S31520001280064B04A9304600F035F9E4E74D1E002050
S31520001290531E0020571E002000000000331000209F
S315200012A013460A46014602480068FFF7E1BE00BF22
S315200012B0C81D0020024B0146186800F02DB800BF5B
S315200012C0C81D0020024B01461868FFF753BE00BF19
S315200012D0C81D002070B50F4E0C463168054611B961
S315200012E000F0A4FC30602146284600F09FFC431CF9
S315200012F003D14FF0FF34204670BDC41C24F00304F4
S31520001300A042F8D0211A284600F090FC0130F2D1F4
S31520001310EFE700BFCC1F00202DE9F843CD1C25F0B8
S31520001320030508350C2D38BF0C25002D064601DB9C
S31520001330A94204D90C2333600020BDE8F883DFF8E6
S31520001340D48000F0F7F9D8F800301C4644BB294673
S315200013503046FFF7BFFF431C044658D1D8F800405B
S315200013602746002F43D1002C4BD0236839463046E0
S3152000137004EB030900F05AFC814542D121686D1A1D
S3152000138029463046FFF7A6FF01303AD023682B4482
S315200013902360D8F800305A6862BBC8F800700FE0A6
S315200013A02268521B20D40B2A17D96119A342256023
S315200013B018BF5960636808BFC8F8001062514B60B7
S315200013C0304600F0BDF904F10B00231D20F0070084
S315200013D0C21A1CBF1B1AA350AFE76268A3420CBFF8
S315200013E0C8F800205A60EBE723466468AEE73C461F
S315200013F07F68B6E71A465B68A342FBD10023536099
S31520001400DEE70C233360304600F09AF994E7056056
S31520001410D6E700BFD01F00202DE9F0471646984694
S315200014208A680B69DDF820909342B8BF1346336073
S3152000143091F8432007460C460AB1013333602368EE
S31520001440990642BF336802333360256815F00605D6
S3152000145006D104F1190AE36832689B1AAB4226DCEE
S3152000146094F843302268003B18BF012392062BD400
S3152000147004F1430241463846C84701301ED023684E
S31520001480226903F00603042B02BFE5683368ED1AD0
S31520001490A3680CBF25EAE57500259342C4BF9B1AB5
S315200014A0ED1800261A34B5421AD1002008E001238F
S315200014B0524641463846C847013003D14FF0FF30E7
S315200014C0BDE8F0870135C6E7E1185A1C302081F8BF
S315200014D04300224494F8451082F843100233C7E7AC
S315200014E00123224641463846C8470130E6D0013618
S315200014F0D9E700002DE9FF470F7E0C9E782F9146F5
S3152000150080460C469A4601F1430207D8622F0AD834
S31520001510002F00F0D280582F00F0B78004F1420649
S3152000152084F842703AE0A7F16303152BF6D801A19F
S3152000153051F823F08D150020A11500201D1500203F
S315200015401D1500201D1500201D150020A1150020A9
S315200015501D1500201D1500201D1500201D1500201D
S31520001560A1160020CB150020571600201D1500209F
S315200015701D150020C31600201D150020CB150020A8
S315200015801D1500201D1500205F16002033681A1D2A
S315200015901B68326004F1420684F8423001239DE044
S315200015A033682068191D3160060601D51D6803E0E1
S315200015B04506FBD5B3F90050002D03DA2D236D42E5
S315200015C084F8433059480A2310E021683368080616
S315200015D053F8045B02D4490648BFADB26F2F534877
S315200015E0336059D10823002184F843106668A66029
S315200015F0002E05DB21682E4321F0040121604DD009
S315200016001646B5FBF3F103FB1157C75D06F8017DBE
S315200016102F46BB420D46F4D9082B0BD12368DF0792
S3152000162008D5236961689942DEBF302306F8013C5C
S3152000163006F1FF36921B2261CDF800A04B4603AA85
S3152000164021464046FFF7E8FE01304CD14FF0FF30EF
S3152000165004B0BDE8F087236843F0200323603448B4
S31520001660782784F84570236831681F0651F8045B93
S3152000167002D45F0648BFADB23160D90744BF43F0FC
S31520001680200323601DB11023ADE72848E9E723682E
S3152000169023F020032360F6E70A23A4E71646BBE7D8
S315200016A0336825686169181D30602E061B6801D5D0
S315200016B0196002E06806FBD51980002323611646CF
S315200016C0BAE733681A1D32601E6862680021304608
S315200016D000F0DEFA08B1801B606063682361002396
S315200016E084F84330A8E72369324649464046D04726
S315200016F00130ABD023689B0713D4E068039B984244
S31520001700B8BF1846A4E70123324649464046D0478B
S3152000171001309BD00135E36803995B1AAB42F2DCBA
S31520001720EBE7002504F11906F5E700BF5E1E002051
S315200017306F1E00200148FFF7A6BB00BFC41F002074
S315200017400148FFF7A6BB00BFC41F002010B50C46FA
S31520001750B1F90E1000F058FA0028ABBF636DA389CB
S315200017601B1823F48053ACBF6365A38110BD0020F2
S3152000177070472DE9F0411F468B89DB0505460C464F
S31520001780164605D5B1F90E100223002200F02AFADA
S31520001790A389B4F90E1023F48053A38132463B4625
S315200017A02846BDE8F04100F051BA10B50C46B1F913
S315200017B00E1000F017FAB4F90C30421C0BBF23F4BC
S315200017C0805343F48053A381A38118BF606510BD65
S315200017D0B1F90E1000F04CBAF8B50E46144605467F
S315200017E018B1036A0BB9FFF75BFAA369A360A38953
S315200017F01A0701D5236943B92146284600F032F855
S3152000180018B14FF0FF373846F8BD23682269981A79
S315200018106369F6B28342374605DC21462846FFF740
S3152000182057F80028EDD1A368013BA36023685A1C12
S3152000183022601E706269431C9A4204D0A389DB078A
S31520001840E1D50A2EDFD121462846FFF741F80028A8
S31520001850D9D0D6E7024B0A4601461868FFF7BCBF27
S31520001860C81D002038B5284B054618680C4618B107
S31520001870036A0BB9FFF714FAB4F90C301A0721D40E
S31520001880D80607D409222A6043F04003A3814FF0EB
S31520001890FF3030E0590712D5616B41B104F14403A2
S315200018A0994202D02846FFF765FB00236363002296
S315200018B0B4F90C3062602269226023F0240343F0DD
S315200018C00803A38122693AB99A0501D5180603D5DA
S315200018D021462846FFF75AFAB4F90C3013F00102D4
S315200018E00AD00022A26062695242A261226942B9EC
S315200018F013F08000C8D138BD990758BF6269A2602D
S31520001900F4E70020F7E700BFC81D002093682DE903
S31520001910F74F06460C4691461BB9002003B0BDE89A
S31520001920F08F8B891B0751D50B69002B4ED0B4F94C
S315200019300CA0D9F800801AF002076CD11AF0010A1F
S3152000194000F098803846BA46BB46BBF1000F00F03F
S315200019500A8150B95A460A21504600F099F90028C2
S3152000196000F007810130A0EB0A072068216963692E
S315200019705F453A4628BF5A46884240F2FD80A56810
S315200019801D44AA4240F3F88051462A4600F010F939
S3152000199023682B44236021463046FEF799FF002812
S315200019A040F088807F1B40F0FF8021463046FEF7BE
S315200019B08FFF00287ED1D9F808305B1BAA44ABEBF9
S315200019C0050BC9F80830002BBFD1A6E721463046C3
S315200019D0FFF748FF0028AAD04FF0FF309EE7D8E94E
S315200019E0005708F10808002FF9D057453B46216AD1
S315200019F0D4F828C028BF53462A463046E047002858
S31520001A0058DDD9F808301B1A05443F1AC9F80830A2
S31520001A10002BE8D181E70025DFF890A12F46E2E7E9
S31520001A20D8E900A508F10808002DF9D0B4F90CC0B2
S31520001A302068A3681CF4007F67D0AB429B461BD965
S31520001A402B462F46AB465A4620680193514600F056
S31520001A50AFF8A268019BD21A2368A2605B44236078
S31520001A60D9F80830DB1BBA44ED1BC9F80830002B27
S31520001A70DAD152E75546D7E71CF4906F43D0216957
S31520001A806769A0EB010B07EB470707EBD7770BF14D
S31520001A9001007F102844B8423A4684BF07463A469A
S31520001AA01CF4806F20D011463046FFF735FC30B944
S31520001AB00C233360A38943F04003A3818CE75A4665
S31520001AC02169019000F034F9A289019B22F49062E9
S31520001AD042F08002A281236167615B44A7EB0B077A
S31520001AE02360A7602B46ACE7304600F02FF903466B
S31520001AF00028F0D121693046FFF73CFAA38923F06C
S31520001B008003A381D4E72F469DE72269824202D330
S31520001B106269AA4216D9AB4228BF2B461A465146BD
S31520001B201F4600F045F8A3682268DB1B3A44A360F1
S31520001B302260002B94D121463046FEF7C9FE0028AC
S31520001B408ED0B7E76FF00043AB4228BF2B46A76A7B
S31520001B5093FBF2F3216A534330465246B847071E99
S31520001B603FF77EAFA6E7D8E900AB002008F10808CA
S31520001B70EBE60BF10107F8E6934208DCA56A216A39
S31520001B8052463046A847051E3FF70CAF92E751460E
S31520001B90019200F00DF8019AA3689B1AA3602368AE
S31520001BA0134423601546FDE6012004E700FCFF7F71
S31520001BB0884210B501EB020402D98442234607D895
S31520001BC0431EA14207D011F8012B03F8012FF8E795
S31520001BD00244824200D110BD13F8011D02F8011DF6
S31520001BE0F7E7000038B5074D04460846114600229F
S31520001BF02A601A46FEF7A8FC431C02D12B6803B1C3
S31520001C00236038BDC81F002038B5074D0446084656
S31520001C10114600222A601A46FEF784FC431C02D194
S31520001C202B6803B1236038BDC81F002038B5064D88
S31520001C300023044608462B60FEF71AFC431C02D1FB
S31520001C402B6803B1236038BDC81F002038B5074D67
S31520001C5004460846114600222A601A46FEF758FC1A
S31520001C60431C02D12B6803B1236038BDC81F002056
S31520001C7038B5064D0023044608462B60FEF75AFC6D
S31520001C80431C02D12B6803B1236038BDC81F002036
S31520001C9001F0FF01102A2BDB10F0070F08D010F8F7
S31520001CA0013B013A8B422DD010F0070F42B3F6D1FB
S31520001CB0F0B441EA012141EA014122F007047FF014
S31520001CC000070023F0E80256083C85EA010586EA6B
S31520001CD0010685FA47F5A3FA87F586FA47F6A5FAA7
S31520001CE087F68EB9EED1F0BC01F0FF0102F00702B3
S31520001CF032B110F8013B013A83EA010313B1F8D15E
S31520001D000020704701387047002D06BF354603383E
S31520001D10073815F0010F07D1013015F4807F02BF77
S31520001D20013015F4C03F0130F0BC0138704700BFC8
S31520001D300A44914200F1FF3300D1704710B511F8E3
S31520001D40014B03F8014F9142F9D110BD2DE9F04125
S31520001D50074614460D4621B9BDE8F0411146FFF766
S31520001D60DBBA2AB9FFF706F925462846BDE8F081F1
S31520001D7000F01AF88442064602D8B4EB500FF4D885
S31520001D8021463846FFF7C8FA804608B94546ECE7AB
S31520001D90B4422246294628BF3246FFF7C9FF2946C4
S31520001DA03846FFF7E7F8F1E751F8043C181F002BF7
S31520001DB0BCBF0B58C0187047FF0000000000000091
S31520001DC003000000841E0020CC1D0020000000001F
S31520001DD0841E0020EC1E0020541F0020000000005E
S31520001DE000000000000000000000000000000000CD
S31520001DF000000000000000000000000000000000BD
S31520001E0000000000000000000000000000000000AC
S31520001E1000000000000000006601002046010020AE
S31520001E204E010020560100205E0100203132334150
S31520001E303435364237383943453046446B65792048
S31520001E40707265737365643A2025630A00232D300A
S31520001E502B2000686C4C006566674546470030318C
S31520001E6032333435363738394142434445460030DB
S31520001E70313233343536373839616263646566000A
S31520001E80000000000000000000000000000000002C
S31520001E90000000000000000000000000000000001C
S31520001EA0000000000000000000000000000000000C
S31520001EB000000000000000000000000000000000FC
S30D2000280090F4FF7F01000000A7
S70520000000DA
