S01400006275696C642F666F724C6162332E73313918
S315200000000748854600F028FB00F0F2FA00F05AFA7D
S3152000001000F000FA00F0B8F900F02CFAFEE7000034
S315200000200028002080B500AF074B1A68064B032135
S315200000308A431A60044B1A68034B01210A431A604B
S31520000040C046BD4680BDC0460010024080B500AF08
S315200000500C4B00221A600C4B29221A600B4B0022F3
S315200000601A60084B05221A60C046064B1A68802380
S315200000705B021340F9D0034B00221A60C046BD46EE
S3152000008080BDC04610E000E014E000E018E000E08B
S3152000009080B584B000AF78600023FB600AE0FFF7EC
S315200000A0D5FFFFF7D3FFFFF7D1FFFFF7CFFFFB68A1
S315200000B00133FB60FA687B689A42F0D9C046C04695
S315200000C0BD4604B080BD80B582B000AF7860084BD5
S315200000D001221A707B681800FFF7DAFF044B002212
S315200000E01A707B681800FFF7D3FFC046EFE7C046BB
S315200000F01410024080B500AF024B00221A60C046A1
S31520000100BD4680BD10E000E080B582B000AF124A47
S31520000110FB1D12781A70FB1D1B780822134001D094
S31520000120042315E0FB1D1B780422134001D0032372
S315200001300EE0FB1D1B780222134001D0022307E0AC
S31520000140FB1D1B780122134001D0012300E0002370
S315200001501800BD4602B080BD1110024080B582B0A5
S3152000016000AF78607B68042B19D87B689A000E4B09
S31520000170D3181B689F460D4B10221A700FE00B4BAD
S3152000018020221A700BE0094B40221A7007E0074B19
S3152000019080221A7003E0054B00221A70C046C04622
S315200001A0BD4602B080BDC046441200201510024054
S315200001B080B582B000AF134B1B78DAB2BB1D1A8014
S315200001C0BB1D1B880822134001D0042315E0BB1D4C
S315200001D01B880422134001D003230EE0BB1D1B887D
S315200001E00222134001D0022307E0BB1D1B880122F7
S315200001F0134001D0012300E000231800BD4602B0C1
S3152000020080BDC0461110024090B587B000AF3B00BC
S31520000210154A13CA13C312681A6001237B6118E0BA
S315200002207B691800FFF79AFFFFF710FFFFF7C0FF63
S3152000023003003B613B69002B08D07B69013B9A0098
S315200002403B69013BD3183A00D35C09E07B69013353
S315200002507B617B69042BE3DD044B00221A70FF23AC
S315200002601800BD4607B090BD581200201510024058
S3152000027080B500AFFFF7C8FF03001A00054B1A70C0
S31520000280054B1A68044BF02109010A431A60C0463F
S31520000290BD4680BDE4110020143C014080B500AF6E
S315200002A01B4B1A681A4B802109040A431A60194B02
S315200002B01A68184B802149000A431A60164B1A689F
S315200002C0154B1204120C1A60134B1A68124B134961
S315200002D00A431A60124B1A68114BF02109010A438E
S315200002E01A60104B1A680F4BF02109010A431A6055
S315200002F00C4B1A680B4B0C490A401A600B4B0C4AE4
S315200003001A600C4B0A4A1A60C046BD4680BDC046DC
S3152000031000E100E010E100E04038014044440000E4
S31520000320003C01400C3C0140FFF0FFFF9CC0012037
S3152000033071020020E0C0012080B500AF0B4B0C4AB3
S315200003401A600C4BAA2212041A600B4B00221A8048
S315200003500A4B00221A600A4B00221A70094B00220F
S315200003601A70FFF79BFFC046BD4680BD00100240B5
S31520000370555500550C10024004100240081002404A
S31520000380141002401510024080B500AFFFF74AFE58
S31520000390FFF7D2FF6420FFF796FEC0460D4B1B7871
S315200003A0DBB2012BFAD1FFF7A5FEC046094B1B781D
S315200003B0DBB2052BFAD1C820FFF785FEC046054BD8
S315200003C01B78DBB2092BFAD1FFF794FEC046BD4657
S315200003D080BDC046E41100200B4A08B503461068CC
S315200003E028B10A4903448B4207D8136008BD084840
S315200003F00649106003448B42F7D900F0CDFC0C234C
S3152000040003604FF0FF3008BD681200200024002052
S3152000041000200020134B144A10B5144C002193429F
S315200004202160044603D2D21A184600F09CFC2046CE
S315200004300F4C00F089F821680023486802221946EB
S3152000044000F036FA2068002319460222806800F060
S315200004502FFA20680023BDE81040C0680222194602
S3152000046000F026BA68120020BC1300206812002073
S31520000470F411002000F072B8431E012B084601D962
S3152000048000207047114600F099B800BF0B4608B10E
S31520000490002070471146184600F06EB84FF0FF3026
S315200004A0704700BF4FF0FF30704700BF00207047F5
S315200004B0002070470138012801D90020704700F03C
S315200004C095B800BF184B194A596C194841F01001CC
S315200004D010B45964196B41F001011963596A41F04E
S315200004E010015962596A21F010015962196941F0C7
S315200004F001011961196921F001011961536A43F457
S31520000500EE635362136843F420131360D36840F2FA
S31520000510D92442F20C0143F48013D36084605DF841
S31520000520044BC160704700BF003802400000024003
S3152000053000100140034B186810F020001CBF5868BB
S31520000540C0B2704700100140034B002040F2D92270
S315200005509A605861186170470010014008B5044B35
S315200005601B68986800F090F9024B0022DA6008BDFB
S31520000570F411002000100140094A00B586460020EB
S3152000058013689B0608D5536813F0FF03F44603D07F
S315200005900CF8013B0130E6468842F1D15DF804FBB8
S315200005A000100140044A13681B06FCD50A28506037
S315200005B001D10D20F7E77047001001408446084618
S315200005C089B1094A00B50CEB010E1CF8011B136812
S315200005D01B06FCD50A29516001D10D21F7E7E64516
S315200005E0F3D15DF804FB70470010014001207047ED
S315200005F0164B17481A6B174942F0180210B41A63A3
S315200006005C6C44F480445C641C6944F018041C61EE
S315200006101C6924F018041C615C6944F480445C6104
S315200006205C6924F480445C6100224FF0AA330260A6
S315200006305DF8044BC36042608260026142610A60D9
S31520000640CB604A608A600A614A617047003802407E
S3152000065000100240000C0240334A3448136800213F
S3152000066043F0010382B013609160136823F0847312
S3152000067023F4803313605060136823F480231360BF
S31520000680D16000910191136843F48033136003E035
S31520000690009BB3F5A04F09D0136803F400330193F0
S315200006A0009B01330093019B002BF1D01E4B1B684E
S315200006B013F4003318BF01230193019B012B01D0B2
S315200006C002B07047184B1A491A6C1A4842F08052E9
S315200006D01A640A6842F440420A609A689A609A68E4
S315200006E042F400429A609A6842F4A0529A60586096
S315200006F01A6842F080721A601A689201FCD50E4A76
S3152000070040F205611160996821F0030199609968AA
S3152000071041F00201A2F580629960936803F00C0310
S31520000720082BFAD102B0704700380240103000245E
S315200007300070004008544008003C0240B1F90C20EB
S31520000740F8B5160705460C4651D44B68002B02DC3B
S315200007500B6C002B49DDE66A002E46D0002312F4EE
S3152000076080522F682B6031D0626DA389590705D539
S315200007706368D21A636B0BB1236CD21A0023E66A24
S31520000780216A2846B047421CB4F90C3006D12968A4
S315200007901D2945D8274ACA40D60741D5002262607E
S315200007A0D9042269226004D5421C01D12B6803B9E1
S315200007B06065616B2F60C1B104F14403994202D098
S315200007C0284600F06BFB002363630EE0216A0123B9
S315200007D02846B0470246501CC7D12B68002BC4D0F0
S315200007E01D2B01D0162B19D12F6000201DE00F697B
S315200007F0002FFAD093070E6808BF4B690F6018BF09
S315200008000023F61B8B60002EEFDD216AD4F828C06A
S3152000081033463A462846E047002807DCB4F90C3030
S3152000082043F04003A3814FF0FF30F8BD0744361A4A
S31520000830E9E700BF0100402038B50B6905460C46A4
S3152000084013B90025284638BD18B1036A0BB900F044
S31520000850DBF9B4F90C30002BF3D0626ED00704D448
S31520000860990502D4A06D00F0A2FA28462146FFF78A
S3152000087065FF636EDA070546E4D4A3899B05E1D4B8
S31520000880A06D00F09AFADDE7014620B9044A054931
S31520000890054800F0EDB9054B1868FFF7CDBF00BF3E
S315200008A0E811002039080020F8110020F41100205A
S315200008B02DE9F7431D46574B1F6804460E469046C2
S315200008C027B13B6A13B9384600F09EF9B8F1020FFA
S315200008D006D0B8F1010F00F29A80002DC0F2978061
S315200008E0636ED90705D4A3899A0502D4A06D00F0BA
S315200008F05EFA21463846FFF79FFF616B41B104F14E
S315200009004403994202D0384600F0C8FA00236363B4
S315200009100023A3616360A3891B0603D5216938469A
S3152000092000F0BCFAA38923F44A6323F00303B8F149
S31520000930020FA38161D001AB6A462146384600F0FA
S31520000940B5F9A3891843A0812DBB009D284600F048
S31520000950EFFA0646002852D1DDF80090A94540D18D
S315200009604FF0FF35B4F90C3043F00202A281002289
S31520000970A26004F147022260226101226261626E56
S31520000980D60704D4980502D4A06D00F016FA28469E
S3152000099003B0BDE8F083002ED8D03B6A13B93846A1
S315200009A000F032F9B8F1010F08BFA389266004BF11
S315200009B043F00103A381B4F90C3013F00802C4E913
S315200009C004651ED0D90741BF00226D42A260A561F1
S315200009D058BFA560626ED20701D49B0513D50025AA
S315200009E0D5E7484600F0A4FA06460028B8D0A389E1
S315200009F043F08003A3814D46CFE70025B2E7A94601
S31520000A00F5E7A260E6E7A06D00F0D7F9E7E74FF03B
S31520000A10FF35BCE7F4110020002310B50446C0E9D9
S31520000A200033C0E90433836081814366C2818361D8
S31520000A30194608225C3000F096F90D4B63620D4B87
S31520000A40A3620D4BE3620D4B23630D4B24629C4244
S31520000A5006D003F16802944202D0D0339C4205D1DD
S31520000A6004F15800BDE8104000F09DB910BD00BF4C
S31520000A70AD100020D31000200B11002031110020D2
S31520000A806C120020024A0349034800F0F1B800BF67
S31520000A90E811002039080020F811002041680C4B8D
S31520000AA0994210B5044601D0FFF7C6FEA168094B4E
S31520000AB0994202D02046FFF7BFFEE168064B9942D5
S31520000AC004D02046BDE81040FFF7B6BE10BD00BFDB
S31520000AD06C120020D41200203C13002008B54B6E67
S31520000AE0DA0705D48B899B0502D4886D00F05FF95F
S31520000AF0002008BD08B54B6EDA0705D48B899B0507
S31520000B0002D4886D00F059F9002008BD0C4B0D4A1F
S31520000B100D4810B504211A600022FFF77DFF0A4B0D
S31520000B2001221C46092103F16800FFF775FF04F135
S31520000B30D0000222BDE810401221FFF76DBF00BF92
S31520000B40A4130020850A00206C120020014800F022
S31520000B502EB900BFAF130020014800F02EB900BF08
S31520000B60AF130020F8B50746FFF7F0FF234B1B68AD
S31520000B700BB9FFF7CBFF224ED6E90134013B0FD547
S31520000B803568002D38D14FF4D671384600F002FA78
S31520000B90044628BB3060FFF7DFFF0C233B601BE0D9
S31520000BA0B4F90C50D5B9174BE36004F158006566CB
S31520000BB000F0F9F8FFF7D0FFC4E90155C4E9045560
S31520000BC02560A5610822294604F15C0000F0CBF8D7
S31520000BD0C4E90D55C4E912552046F8BD6834CDE761
S31520000BE00423056043600C302946A0604FF4D07280
S31520000BF000F0B9F8254634602E46BDE7A413002040
S31520000C00E81100200100FFFF10B50446FFF79EFF04
S31520000C10236A1BB1BDE81040FFF79EBF044B236239
S31520000C20044B1B68002BF5D1FFF770FFF2E700BFDE
S31520000C309D0A0020A413002008B5FFF787FFBDE812
S31520000C400840024A0249002000F012B8E8110020AC
S31520000C50DD0A002008B5044A0449002000F008F8FF
S31520000C60BDE80840FFF778BFE8110020F50A00200C
S31520000C702DE9F8430746884614460026D4E901950F
S31520000C80B9F1010905D52468002CF7D13046BDE815
S31520000C90F883AB89012B07D9B5F90E30013303D080
S31520000CA029463846C04706436835E9E770B50C46FD
S31520000CB0B1F90E10002996B015461E460ADAA1890A
S31520000CC011F0800113D14FF48062002031602A6038
S31520000CD016B070BD6A4600F0CFF80028EFDB019908
S31520000CE001F47041A1F5005359425941EBE7002127
S31520000CF04022EAE78B8973B59E0705460C4607D541
S31520000D0004F14703236023610123636102B070BDB0
S31520000D1001AB6A46FFF7CAFF009E2846314600F01F
S31520000D2039F9B4F90C3038B99A05EFD423F0030316
S31520000D3043F00203A381E3E743F08003A381019BF1
S31520000D402060C4E90406002BE0D0B4F90E10284632
S31520000D5000F012F80028D9D0A38923F0030343F02A
S31520000D600103A381D2E702440346934200D1704790
S31520000D7003F8011BF9E7000038B5064D00230446A9
S31520000D8008462B60FFF796FB431C02D12B6803B164
S31520000D90236038BDB0130020014B1868704700BF90
S31520000DA0F4110020704770477047704770477047AE
S31520000DB00120704701207047704770472D4B1B68F4
S31520000DC0834270B5044653D0C3691BB3DB6863B155
S31520000DD00025E369DB685959B1B90435802DF8D16E
S31520000DE0E3692046D96800F059F8E369196811B11A
S31520000DF0204600F053F8E3699D685DB129462046F8
S31520000E002D6800F04BF8F8E70E68204600F046F80B
S31520000E103146E1E7616911B1204600F03FF8E1690A
S31520000E2011B1204600F03AF8216B11B1204600F0AE
S31520000E3035F8616B11B1204600F030F8A16B11B185
S31520000E40204600F02BF8A16C11B1204600F026F8C0
S31520000E50616C11B1204600F021F8E16A11B12046FB
S31520000E6000F01CF8236A1BB12046BDE870401847E5
S31520000E7070BD00BFF411002038B5074D002304468D
S31520000E80084611462B60FFF711FB431C02D12B6845
S31520000E9003B1236038BD00BFB013002038B5054626
S31520000EA0002941D051F8043C0C1F002BB8BFE41890
S31520000EB000F0F0F81D4A136833B9636014602846C1
S31520000EC0BDE8384000F0ECB8A34208D920682118C4
S31520000ED08B4201BF19685B6809182160EDE71A4645
S31520000EE05B680BB1A342FAD911685018A0420BD106
S31520000EF020680144501883421160E0D118685B686D
S31520000F00536008441060DAE702D90C232B60D6E739
S31520000F10206821188B4204BF19685B68636004BF90
S31520000F20091821605460CAE738BD00BFB8130020F5
S31520000F30024B0146186800F02DB800BFF4110020BE
S31520000F40024B01461868FFF7A9BF00BFF411002025
S31520000F5070B50F4E0C463168054611B900F010F9F0
S31520000F6030602146284600F00BF9431C03D14FF090
S31520000F70FF34204670BDC41C24F00304A042F8D0E0
S31520000F80211A284600F0FCF80130F2D1EFE700BF25
S31520000F90B41300202DE9F843CD1C25F003050835B0
S31520000FA00C2D38BF0C25002D064601DBA94204D99D
S31520000FB00C2333600020BDE8F883DFF8D48000F0EE
S31520000FC069F8D8F800301C4644BB29463046FFF75E
S31520000FD0BFFF431C044658D1D8F800402746002FAF
S31520000FE043D1002C4BD023683946304604EB030905
S31520000FF000F0C6F8814542D121686D1A294630464F
S31520001000FFF7A6FF01303AD023682B442360D8F897
S3152000101000305A6862BBC8F800700FE02268521B85
S3152000102020D40B2A17D96119A342256018BF59600D
S31520001030636808BFC8F8001062514B60304600F064
S315200010402FF804F10B00231D20F00700C21A1CBF45
S315200010501B1AA350AFE76268A3420CBFC8F8002052
S315200010605A60EBE723466468AEE73C467F68B6E7FE
S315200010701A465B68A342FBD100235360DEE70C23AC
S315200010803360304600F00CF894E70560D6E700BFE1
S31520001090B81300200148FFF78ABE00BFAC1300201A
S315200010A00148FFF78ABE00BFAC13002010B50C46DE
S315200010B0B1F90E1000F052F80028ABBF636DA3897A
S315200010C01B1823F48053ACBF6365A38110BD002099
S315200010D070472DE9F0411F468B89DB0505460C46F6
S315200010E0164605D5B1F90E100223002200F024F889
S315200010F0A389B4F90E1023F48053A38132463B46CC
S315200011002846BDE8F04100F04BB810B50C46B1F9C1
S315200011100E1000F011F8B4F90C30421C0BBF23F46A
S31520001120805343F48053A381A38118BF606510BD0B
S31520001130B1F90E1000F046B838B5074D04460846FA
S31520001140114600222A601A46FFF7B2F9431C02D143
S315200011502B6803B1236038BDB013002038B5074D86
S3152000116004460846114600222A601A46FFF78EF9E1
S31520001170431C02D12B6803B1236038BDB013002075
S3152000118038B5064D0023044608462B60FFF724F9A0
S31520001190431C02D12B6803B1236038BDB013002055
S315200011A038B5074D04460846114600222A601A46DD
S315200011B0FFF762F9431C02D12B6803B1236038BDC7
S315200011C0B013002038B5064D0023044608462B6090
S315200011D0FFF764F9431C02D12B6803B1236038BDA5
S315200011E0B0130020FF0000000000000003000000F4
S315200011F06C120020F8110020000000006C12002064
S31520001200D41200203C130020000000000000000043
S3152000121000000000000000000000000000000000A8
S315200012200000000000000000000000000000000098
S315200012300000000000000000000000000000000088
S315200012400000000096010020760100207E0100208B
S31520001250860100208E01002031323341343536425A
S31520001260373839434530464400000000000000006E
S315200012700000000000000000000000000000000048
S315200012800000000000000000000000000000000038
S315200012900000000000000000000000000000000028
S315200012A00000000000000000000000000000000018
S70520000000DA
